:02000004C0D06A
:1000000070B5A2B0254878441BAC21462CC82CC141
:100010000288807888700A8019AD002028711D49F7
:10002000199117AE30711C4817900DA81C497944DE
:10003000282200F059F80FA870C001AC204600F04B
:10004000ADF8A085000411D101A800F09BF80B9039
:100050000A2000F067F80DA82190012000022090EE
:10006000104878441F901FA800F068F800F07EF850
:1000700001A9884202D10B9800F084F800F014F82E
:1000800001A8808D002802D1002022B070BD00F0B0
:1000900041F8C0464D746E734D544E53A203000098
:1000A0008A0300002503000010B58CB06C46204682
:1000B00000F074F8A085000406D1684600F062F8EC
:1000C0000A90FF2000F046F800F050F86946884298
:1000D00002D10A9800F056F86846808D002801D1B8
:1000E0000CB010BD00F016F8B0B5884208D9002A4F
:1000F0000FD0491E401E8B5C8354521EFBD108E07A
:10010000002A06D000239CB20D5D05555B1C521ED3
:10011000F9D1B0BD044600F029F8214600F04AF8B4
:1001200001DF704780B584B00190034801A9FFF753
:10013000F7FF04B080BDC0463701006080B584B0D1
:100140000190034801A9FFF7EBFF04B080BDC04652
:100150000D67006080B584B00190034801A9FFF7E6
:10016000DFFF04B080BDC046BE9A006080B582B09B
:1001700003486946FFF7D4FF019802B080BDC0462E
:10018000B187006080B584B00190034801A9FFF7F2
:10019000C7FF029804B080BD75880060F0C041467A
:1001A0004A4653465C466D4676467EC02838F0C8BF
:1001B0000020704710307CC890469946A246AB4656
:1001C000B54608C82838F0C8081C00D101201847D7
:1001D0004D616E75616C20617070726F76616C003C
:1001E0004175746F20617070726F76616C0050752C
:1001F000626C6963206B657973006578706F7274E7
:1002000020617070726F76616C004261636B0056A2
:10021000657273696F6E00312E332E31370055735E
:10022000652077616C6C657420746F007669657702
:10023000206163636F756E74730053657474696EC7
:1002400067730041626F7574005175697420617045
:1002500070005761726E696E6720210054686520D6
:1002600064657269766174696F6E0070617468208C
:10027000697320756E757375616C0044657269767B
:100280006174696F6E20706174680052656A65639D
:100290007420696620796F75277265006E6F74200F
:1002A0007375726500436F6E6669726D0061646498
:1002B00072657373004164647265737300436F6E9B
:1002C0006669726D20746F6B656E004578706F7231
:1002D00074007075626C6963206B65793F005468C7
:1002E00065206368616E67652070617468004368AB
:1002F000616E67652070617468007472616E73610D
:100300006374696F6E00416D6F756E74004665654C
:1003100073005369676E20746865006D657373615F
:100320006765004D65737361676520686173680078
:10033000554E4B4E4F574E00524557415244006F59
:100340006D6E69004F4D4E492000555344542000B6
:100350004D41494420004F4D4E49206173736574EF
:1003600020256420005032534800252E2A482E2E86
:100370002E252E2A48006F7574707574202325640D
:10038000004D746E73004D544E5300426974636F98
:10039000696E00004F505F52455455524E000000A8
:1003A0004F505F4352454154450000004F6D6F74FC
:1003B000656E61736869436F696E00003F001200EB
:1003C00001000000AC03D0C08103D0C08603D0C0C0
:1003D0000000000000000000000000001B00000002
:1003E000000000000000000000000000000000000D
:1003F00000000000000000000000000000000000FD
:04000005C0D0000166
:00000001FF
